{
  "address": "0xBfFB3a6B261a5D4980f82a31004637b862ad4D28",
  "abi": [
    {
      "inputs": [
        {
          "internalType": "address",
          "name": "priceFeedAddress",
          "type": "address"
        }
      ],
      "stateMutability": "nonpayable",
      "type": "constructor"
    },
    {
      "inputs": [],
      "name": "notOwner",
      "type": "error"
    },
    {
      "stateMutability": "payable",
      "type": "fallback"
    },
    {
      "inputs": [],
      "name": "MIN_USD",
      "outputs": [
        {
          "internalType": "uint256",
          "name": "",
          "type": "uint256"
        }
      ],
      "stateMutability": "view",
      "type": "function"
    },
    {
      "inputs": [
        {
          "internalType": "address",
          "name": "",
          "type": "address"
        }
      ],
      "name": "addressToamountFunded",
      "outputs": [
        {
          "internalType": "uint256",
          "name": "",
          "type": "uint256"
        }
      ],
      "stateMutability": "view",
      "type": "function"
    },
    {
      "inputs": [],
      "name": "fund",
      "outputs": [],
      "stateMutability": "payable",
      "type": "function"
    },
    {
      "inputs": [
        {
          "internalType": "uint256",
          "name": "",
          "type": "uint256"
        }
      ],
      "name": "funders",
      "outputs": [
        {
          "internalType": "address",
          "name": "",
          "type": "address"
        }
      ],
      "stateMutability": "view",
      "type": "function"
    },
    {
      "inputs": [],
      "name": "i_owner",
      "outputs": [
        {
          "internalType": "address",
          "name": "",
          "type": "address"
        }
      ],
      "stateMutability": "view",
      "type": "function"
    },
    {
      "inputs": [],
      "name": "priceFeed",
      "outputs": [
        {
          "internalType": "contract AggregatorV3Interface",
          "name": "",
          "type": "address"
        }
      ],
      "stateMutability": "view",
      "type": "function"
    },
    {
      "inputs": [],
      "name": "withdraw",
      "outputs": [],
      "stateMutability": "nonpayable",
      "type": "function"
    },
    {
      "stateMutability": "payable",
      "type": "receive"
    }
  ],
  "transactionHash": "0x4ca7af3790d7cb1a75c2487500e6f9e0422b608306a57dce697e38af18781779",
  "args": [
    "0x8A753747A1Fa494EC906cE90E9f37563A8AF630e"
  ],
  "numDeployments": 1,
  "solcInputHash": "ddfd44e6353e71ccd59da38f3ab8d9dc",
  "bytecode": "0x60a060405234801561001057600080fd5b5060405162000fe138038062000fe183398181016040528101906100349190610112565b3373ffffffffffffffffffffffffffffffffffffffff1660808173ffffffffffffffffffffffffffffffffffffffff168152505080600160006101000a81548173ffffffffffffffffffffffffffffffffffffffff021916908373ffffffffffffffffffffffffffffffffffffffff1602179055505061013f565b600080fd5b600073ffffffffffffffffffffffffffffffffffffffff82169050919050565b60006100df826100b4565b9050919050565b6100ef816100d4565b81146100fa57600080fd5b50565b60008151905061010c816100e6565b92915050565b600060208284031215610128576101276100af565b5b6000610136848285016100fd565b91505092915050565b608051610e7f620001626000396000818161030a01526105700152610e7f6000f3fe6080604052600436106100745760003560e01c8063741bef1a1161004e578063741bef1a1461010c578063b60d428814610137578063dba6335f14610141578063dc0d3dff1461016c57610083565b8063213dbea21461008d5780632398fa15146100b85780633ccfd60b146100f557610083565b36610083576100816101a9565b005b61008b6101a9565b005b34801561009957600080fd5b506100a26102e3565b6040516100af919061076d565b60405180910390f35b3480156100c457600080fd5b506100df60048036038101906100da91906107eb565b6102f0565b6040516100ec919061076d565b60405180910390f35b34801561010157600080fd5b5061010a610308565b005b34801561011857600080fd5b50610121610548565b60405161012e9190610877565b60405180910390f35b61013f6101a9565b005b34801561014d57600080fd5b5061015661056e565b60405161016391906108a1565b60405180910390f35b34801561017857600080fd5b50610193600480360381019061018e91906108e8565b610592565b6040516101a091906108a1565b60405180910390f35b6802b5e3af16b18800006101e8600160009054906101000a900473ffffffffffffffffffffffffffffffffffffffff16346105d190919063ffffffff16565b1015610229576040517f08c379a000000000000000000000000000000000000000000000000000000000815260040161022090610972565b60405180910390fd5b6002339080600181540180825580915050600190039060005260206000200160009091909190916101000a81548173ffffffffffffffffffffffffffffffffffffffff021916908373ffffffffffffffffffffffffffffffffffffffff160217905550346000803373ffffffffffffffffffffffffffffffffffffffff1673ffffffffffffffffffffffffffffffffffffffff16815260200190815260200160002060008282546102da91906109c1565b92505081905550565b6802b5e3af16b188000081565b60006020528060005260406000206000915090505481565b7f000000000000000000000000000000000000000000000000000000000000000073ffffffffffffffffffffffffffffffffffffffff163373ffffffffffffffffffffffffffffffffffffffff161461038d576040517f251c9d6300000000000000000000000000000000000000000000000000000000815260040160405180910390fd5b60005b600280549050811015610438576000600282815481106103b3576103b2610a17565b5b9060005260206000200160009054906101000a900473ffffffffffffffffffffffffffffffffffffffff16905060008060008373ffffffffffffffffffffffffffffffffffffffff1673ffffffffffffffffffffffffffffffffffffffff1681526020019081526020016000208190555050808061043090610a46565b915050610390565b50600067ffffffffffffffff81111561045457610453610a8f565b5b6040519080825280602002602001820160405280156104825781602001602082028036833780820191505090505b50600290805190602001906104989291906106ad565b5060003373ffffffffffffffffffffffffffffffffffffffff16476040516104bf90610aef565b60006040518083038185875af1925050503d80600081146104fc576040519150601f19603f3d011682016040523d82523d6000602084013e610501565b606091505b5050905080610545576040517f08c379a000000000000000000000000000000000000000000000000000000000815260040161053c90610b50565b60405180910390fd5b50565b600160009054906101000a900473ffffffffffffffffffffffffffffffffffffffff1681565b7f000000000000000000000000000000000000000000000000000000000000000081565b600281815481106105a257600080fd5b906000526020600020016000915054906101000a900473ffffffffffffffffffffffffffffffffffffffff1681565b6000806105dd8361060d565b90506000670de0b6b3a764000085836105f69190610b70565b6106009190610bf9565b9050809250505092915050565b6000808273ffffffffffffffffffffffffffffffffffffffff1663feaf968c6040518163ffffffff1660e01b815260040160a06040518083038186803b15801561065657600080fd5b505afa15801561066a573d6000803e3d6000fd5b505050506040513d601f19601f8201168201806040525081019061068e9190610cb7565b5050509150506402540be400816106a59190610d32565b915050919050565b828054828255906000526020600020908101928215610726579160200282015b828111156107255782518260006101000a81548173ffffffffffffffffffffffffffffffffffffffff021916908373ffffffffffffffffffffffffffffffffffffffff160217905550916020019190600101906106cd565b5b5090506107339190610737565b5090565b5b80821115610750576000816000905550600101610738565b5090565b6000819050919050565b61076781610754565b82525050565b6000602082019050610782600083018461075e565b92915050565b600080fd5b600073ffffffffffffffffffffffffffffffffffffffff82169050919050565b60006107b88261078d565b9050919050565b6107c8816107ad565b81146107d357600080fd5b50565b6000813590506107e5816107bf565b92915050565b60006020828403121561080157610800610788565b5b600061080f848285016107d6565b91505092915050565b6000819050919050565b600061083d6108386108338461078d565b610818565b61078d565b9050919050565b600061084f82610822565b9050919050565b600061086182610844565b9050919050565b61087181610856565b82525050565b600060208201905061088c6000830184610868565b92915050565b61089b816107ad565b82525050565b60006020820190506108b66000830184610892565b92915050565b6108c581610754565b81146108d057600080fd5b50565b6000813590506108e2816108bc565b92915050565b6000602082840312156108fe576108fd610788565b5b600061090c848285016108d3565b91505092915050565b600082825260208201905092915050565b7f4469646e27742073656e6420656e6f7567682065746800000000000000000000600082015250565b600061095c601683610915565b915061096782610926565b602082019050919050565b6000602082019050818103600083015261098b8161094f565b9050919050565b7f4e487b7100000000000000000000000000000000000000000000000000000000600052601160045260246000fd5b60006109cc82610754565b91506109d783610754565b9250827fffffffffffffffffffffffffffffffffffffffffffffffffffffffffffffffff03821115610a0c57610a0b610992565b5b828201905092915050565b7f4e487b7100000000000000000000000000000000000000000000000000000000600052603260045260246000fd5b6000610a5182610754565b91507fffffffffffffffffffffffffffffffffffffffffffffffffffffffffffffffff821415610a8457610a83610992565b5b600182019050919050565b7f4e487b7100000000000000000000000000000000000000000000000000000000600052604160045260246000fd5b600081905092915050565b50565b6000610ad9600083610abe565b9150610ae482610ac9565b600082019050919050565b6000610afa82610acc565b9150819050919050565b7f43616c6c206661696c6564210000000000000000000000000000000000000000600082015250565b6000610b3a600c83610915565b9150610b4582610b04565b602082019050919050565b60006020820190508181036000830152610b6981610b2d565b9050919050565b6000610b7b82610754565b9150610b8683610754565b9250817fffffffffffffffffffffffffffffffffffffffffffffffffffffffffffffffff0483118215151615610bbf57610bbe610992565b5b828202905092915050565b7f4e487b7100000000000000000000000000000000000000000000000000000000600052601260045260246000fd5b6000610c0482610754565b9150610c0f83610754565b925082610c1f57610c1e610bca565b5b828204905092915050565b600069ffffffffffffffffffff82169050919050565b610c4981610c2a565b8114610c5457600080fd5b50565b600081519050610c6681610c40565b92915050565b6000819050919050565b610c7f81610c6c565b8114610c8a57600080fd5b50565b600081519050610c9c81610c76565b92915050565b600081519050610cb1816108bc565b92915050565b600080600080600060a08688031215610cd357610cd2610788565b5b6000610ce188828901610c57565b9550506020610cf288828901610c8d565b9450506040610d0388828901610ca2565b9350506060610d1488828901610ca2565b9250506080610d2588828901610c57565b9150509295509295909350565b6000610d3d82610c6c565b9150610d4883610c6c565b9250827f7fffffffffffffffffffffffffffffffffffffffffffffffffffffffffffffff0482116000841360008413161615610d8757610d86610992565b5b817f80000000000000000000000000000000000000000000000000000000000000000583126000841260008413161615610dc457610dc3610992565b5b827f80000000000000000000000000000000000000000000000000000000000000000582126000841360008412161615610e0157610e00610992565b5b827f7fffffffffffffffffffffffffffffffffffffffffffffffffffffffffffffff0582126000841260008412161615610e3e57610e3d610992565b5b82820290509291505056fea264697066735822122097d2e2afc044ae0dd68a2df2c1e233da33867eb1baa9450c9fe694676bb5303064736f6c63430008090033",
  "devdoc": {
    "kind": "dev",
    "methods": {},
    "version": 1
  },
  "userdoc": {
    "kind": "user",
    "methods": {},
    "version": 1
  },
  "storageLayout": {
    "storage": [
      {
        "astId": 62,
        "contract": "contracts/FundMe.sol:FundMe",
        "label": "addressToamountFunded",
        "offset": 0,
        "slot": "0",
        "type": "t_mapping(t_address,t_uint256)"
      },
      {
        "astId": 65,
        "contract": "contracts/FundMe.sol:FundMe",
        "label": "priceFeed",
        "offset": 0,
        "slot": "1",
        "type": "t_contract(AggregatorV3Interface)45"
      },
      {
        "astId": 68,
        "contract": "contracts/FundMe.sol:FundMe",
        "label": "funders",
        "offset": 0,
        "slot": "2",
        "type": "t_array(t_address)dyn_storage"
      }
    ],
    "types": {
      "t_address": {
        "encoding": "inplace",
        "label": "address",
        "numberOfBytes": "20"
      },
      "t_array(t_address)dyn_storage": {
        "base": "t_address",
        "encoding": "dynamic_array",
        "label": "address[]",
        "numberOfBytes": "32"
      },
      "t_contract(AggregatorV3Interface)45": {
        "encoding": "inplace",
        "label": "contract AggregatorV3Interface",
        "numberOfBytes": "20"
      },
      "t_mapping(t_address,t_uint256)": {
        "encoding": "mapping",
        "key": "t_address",
        "label": "mapping(address => uint256)",
        "numberOfBytes": "32",
        "value": "t_uint256"
      },
      "t_uint256": {
        "encoding": "inplace",
        "label": "uint256",
        "numberOfBytes": "32"
      }
    }
  }
}